:020000040000FA
:030000000200A259
:03006B0002023D51
:10007B0002027500000080FB1200B1B90003020000
:10008B009CE4900200780779018002F0A3D8FCD998
:10009B00FA1202A712007E75D0007581BF75100091
:1000AB00751102020083790122C0D02510C582C0D0
:1000BB00E0E51134FFC583C0E0E510C3958224F35E
:1000CB0010AF088583118582108008858311858286
:1000DB0010D2AFC8F0A3E9F0A3EAF0A3EBF0A37939
:1000EB0008E709F0A3D8FAECF0A3EDF0A3EEF0A328
:1000FB00EFF0A3D0E0F0A3D0E0F0A3D0E0F0A3E5C5
:10010B0020F0A3E5F0F0A322851183851082E0C0D7
:10011B00E0A3E0F9A3E0FAA3E0FBA37808E0F6087C
:10012B00A3DFFAE0FCA3E0FDA3E0FEA3E0FFA3E066
:10013B00C0E0A3E0C0E0A3E0F5D0A3E0F520A3E08E
:10014B00A3F5F010AF088583118582108008858395
:10015B0011858210D2AFD082D083D0E0F8D0E032BC
:10016B00C082C0837C007D008019E82401F8E9344B
:10017B0000F9C3E89417E9940240EFEC2401FCED7D
:10018B003400FDC3EC9AED9B50067800790080E2B9
:10019B00900202E02401F0A3E03400F0900201E0B1
:1001AB0070FAD083D08222C082C0837C007D008015
:1001BB0019E82401F8E93400F9C3E89417E994022B
:1001CB0040EFEC2401FCED3400FDC3EC9AED9B50A9
:1001DB00067800790080E2900204E02401F0A3E0AD
:1001EB003400F0D083D08222E9A2E09285E9A2E02C
:1001FB009286E9A2E092872243FD2043FD4043FD16
:10020B008079000201F353F3EF53FDEF538FEFD2DD
:10021B00BD43AB10438C0175890053F4FB53FEFBBC
:10022B0053F6FB439A10438D04438C02758900D21D
:10023B00AF22C0E074F21200B4E589A2E450217A37
:10024B000A7B001201B2A28440169002017400F0E6
:10025B00900200E07004740180027400900200F0C0
:10026B005389EFC2C57F01020113C0E074F2120083
:10027B00B4E58AA2E2501B7A0A7B001201B2A29269
:10028B004010900201E0700474018002740090022F
:10029B0001F0538AFBC2EB7F01020113120203121E
:1002AB0002118033D2F0A28730F001B392877AC863
:1002BB007B0012016BD2F0A28630F001B392867AEA
:1002CB00C87B0012016BD2F0A28530F001B392858E
:1002DB007AC87B0012016B900200E0640160C57963
:1002EB00001201F3D2857AF47B0112016BC2857A7D
:0802FB00F47B0112016B80DFAE
:04000005000000A255
:00000001FF
