:020000040000FA
:1000000002002500000080FB12002EB90003020050
:100010001FE479087802B800028004F709D8FC12BE
:1000200000AC12000375D0007581BF020008790191
:10003000227C007D008019E82401F8E93400F9C32E
:10004000E89417E9940240EFEC2401FCED3400FD44
:10005000C3EC9AED9B50067800790080E27808E6C0
:100060002401F608740036F61822E9A2E09285E928
:10007000A2E09286E9A2E092872243FD2043FD4060
:1000800043FD8000790002006A53F3EF53FDEF5304
:100090008FEF22A28440127A0A7B00120031A284E0
:1000A0004007A28450FC79012279002212007A12C2
:1000B00000897E017F008012D2857AF47B011200D4
:1000C00031C2857AF47B011200317A027B00120082
:1000D00031120093E96011EE4F7004D2F08002C239
:1000E000F0A2F0E433FE7F00EE4F70CCD2857AF4BC
:1000F0007B01120031C285D2867AF47B0112003175
:0F010000C286D2877AF47B01120031C28780BB9E
:0400000500000025D2
:00000001FF
