:020000040000FA
:030000000200AB50
:03004B000202109E
:10005B0002027700000080FB1200BAB90003020015
:10006B00A5E4900200780579018002F0A3D8FCD9B1
:10007B00FA900204AA82AB839000BD7802790180CA
:10008B0015E493A3AC82AD838A828B83F0A3AA82FF
:10009B00AB838C828D83D8E9D9E712028612005E7E
:1000AB0075D0007581BF7510007511020200637960
:1000BB00012201C0D02510C582C0E0E51134FFC577
:1000CB0083C0E0E510C3958224F310AF088583113C
:1000DB008582108008858311858210D2AFC8F0A36A
:1000EB00E9F0A3EAF0A3EBF0A37908E709F0A3D8B2
:1000FB00FAECF0A3EDF0A3EEF0A3EFF0A3D0E0F059
:10010B00A3D0E0F0A3D0E0F0A3E520F0A3E5F0F05E
:10011B00A322851183851082E0C0E0A3E0F9A3E060
:10012B00FAA3E0FBA37808E0F608A3DFFAE0FCA350
:10013B00E0FDA3E0FEA3E0FFA3E0C0E0A3E0C0E08E
:10014B00A3E0F5D0A3E0F520A3E0A3F5F010AF08F2
:10015B008583118582108008858311858210D2AF2B
:10016B00D082D083D0E0F8D0E03243FDE0C285C22C
:10017B0086C28722C082C083A2844024900201E001
:10018B002401F0900201E0C39407401E9002037417
:10019B0001F09002047400F09002017400F0800AE8
:1001AB00A28450069002017400F0A29340249002A6
:1001BB0002E02401F0900202E0C39407401E90027B
:1001CB00047401F09002037400F09002027400F0CA
:1001DB00800AA29350069002027400F0D083D08262
:1001EB002243E40C75DA1275DB7AD2DED2B9D2AFC8
:1001FB0043E4032243CB0CD2BB43CBE053CBFC43B6
:10020B00CB10D2AF22C0E0C0D0E8C0E0E9C0E0C064
:10021B0082C08353AFDF900200E02401F090020014
:10022B00E064037012900203E0A2E0928590020456
:10023B00E0A2E092878026900200E0C39404401D68
:10024B007400900200F0F9A2E0E43313135480F829
:10025B00E580547F48F88880E8A2E79285D083D068
:10026B0082D0E0F9D0E0F8D0D0D0E032C0E074F228
:10027B001200BE12017F7F0102011D1201751201D6
:06028B00EC1201FF80FEF1
:04000005000000AB4C
:00000001FF
